{
  "contractName": "ItemManager",
  "abi": [
    {
      "anonymous": false,
      "inputs": [
        {
          "indexed": false,
          "internalType": "uint256",
          "name": "_itemIndex",
          "type": "uint256"
        },
        {
          "indexed": false,
          "internalType": "uint256",
          "name": "_step",
          "type": "uint256"
        },
        {
          "indexed": false,
          "internalType": "address",
          "name": "_itemAddress",
          "type": "address"
        }
      ],
      "name": "SupplyChainStep",
      "type": "event"
    },
    {
      "inputs": [],
      "name": "isOwner",
      "outputs": [
        {
          "internalType": "bool",
          "name": "",
          "type": "bool"
        }
      ],
      "stateMutability": "view",
      "type": "function",
      "constant": true
    },
    {
      "inputs": [
        {
          "internalType": "uint256",
          "name": "",
          "type": "uint256"
        }
      ],
      "name": "items",
      "outputs": [
        {
          "internalType": "contract Item",
          "name": "_item",
          "type": "address"
        },
        {
          "internalType": "string",
          "name": "_identifier",
          "type": "string"
        },
        {
          "internalType": "uint256",
          "name": "_itemPrice",
          "type": "uint256"
        },
        {
          "internalType": "enum ItemManager.SupplyChainState",
          "name": "_state",
          "type": "uint8"
        }
      ],
      "stateMutability": "view",
      "type": "function",
      "constant": true
    },
    {
      "inputs": [
        {
          "internalType": "string",
          "name": "_identifier",
          "type": "string"
        },
        {
          "internalType": "uint256",
          "name": "_itemPrice",
          "type": "uint256"
        }
      ],
      "name": "createItem",
      "outputs": [],
      "stateMutability": "nonpayable",
      "type": "function"
    },
    {
      "inputs": [
        {
          "internalType": "uint256",
          "name": "_itemIndex",
          "type": "uint256"
        }
      ],
      "name": "triggerPayment",
      "outputs": [],
      "stateMutability": "payable",
      "type": "function",
      "payable": true
    },
    {
      "inputs": [
        {
          "internalType": "uint256",
          "name": "_itemIndex",
          "type": "uint256"
        }
      ],
      "name": "triggerDelivery",
      "outputs": [],
      "stateMutability": "nonpayable",
      "type": "function"
    }
  ],
  "bytecode": "0x608060405234801561001057600080fd5b50336000806101000a81548173ffffffffffffffffffffffffffffffffffffffff021916908373ffffffffffffffffffffffffffffffffffffffff160217905550611808806100606000396000f3fe608060405260043610620000505760003560e01c8063800fb83f14620000555780638c55174214620000755780638f32d59b14620000a3578063bfb231d214620000d3578063cd31831e146200011a575b600080fd5b6200007360048036038101906200006d9190620009ff565b62000148565b005b3480156200008257600080fd5b50620000a160048036038101906200009b919062000999565b62000325565b005b348015620000b057600080fd5b50620000bb62000533565b604051620000ca919062000b4d565b60405180910390f35b348015620000e057600080fd5b50620000ff6004803603810190620000f99190620009ff565b6200058a565b60405162000111949392919062000ba7565b60405180910390f35b3480156200012757600080fd5b50620001466004803603810190620001409190620009ff565b62000677565b005b34600160008381526020019081526020016000206002015414620001a3576040517f08c379a00000000000000000000000000000000000000000000000000000000081526004016200019a9062000c1d565b60405180910390fd5b60006002811115620001ba57620001b962000f0a565b5b6001600083815260200190815260200160002060030160009054906101000a900460ff166002811115620001f357620001f262000f0a565b5b1462000236576040517f08c379a00000000000000000000000000000000000000000000000000000000081526004016200022d9062000bfb565b60405180910390fd5b600180600083815260200190815260200160002060030160006101000a81548160ff0219169083600281111562000272576200027162000f0a565b5b02179055507fa4035636e99f06b7651a604c1019fa4e8779fe68ef27eeb74dff2de348f6199b816001600084815260200190815260200160002060030160009054906101000a900460ff166002811115620002d257620002d162000f0a565b5b6001600085815260200190815260200160002060000160009054906101000a900473ffffffffffffffffffffffffffffffffffffffff166040516200031a9392919062000c61565b60405180910390a150565b6200032f62000533565b62000371576040517f08c379a0000000000000000000000000000000000000000000000000000000008152600401620003689062000c3f565b60405180910390fd5b60003082600254604051620003869062000846565b620003949392919062000b6a565b604051809103906000f080158015620003b1573d6000803e3d6000fd5b5090508060016000600254815260200190815260200160002060000160006101000a81548173ffffffffffffffffffffffffffffffffffffffff021916908373ffffffffffffffffffffffffffffffffffffffff1602179055508260016000600254815260200190815260200160002060010190805190602001906200043992919062000854565b508160016000600254815260200190815260200160002060020181905550600060016000600254815260200190815260200160002060030160006101000a81548160ff0219169083600281111562000496576200049562000f0a565b5b02179055507fa4035636e99f06b7651a604c1019fa4e8779fe68ef27eeb74dff2de348f6199b60025460016000600254815260200190815260200160002060030160009054906101000a900460ff166002811115620004fa57620004f962000f0a565b5b836040516200050c9392919062000c61565b60405180910390a160026000815480929190620005299062000e8d565b9190505550505050565b60008060009054906101000a900473ffffffffffffffffffffffffffffffffffffffff1673ffffffffffffffffffffffffffffffffffffffff163373ffffffffffffffffffffffffffffffffffffffff1614905090565b60016020528060005260406000206000915090508060000160009054906101000a900473ffffffffffffffffffffffffffffffffffffffff1690806001018054620005d59062000e21565b80601f0160208091040260200160405190810160405280929190818152602001828054620006039062000e21565b8015620006545780601f10620006285761010080835404028352916020019162000654565b820191906000526020600020905b8154815290600101906020018083116200063657829003601f168201915b5050505050908060020154908060030160009054906101000a900460ff16905084565b6200068162000533565b620006c3576040517f08c379a0000000000000000000000000000000000000000000000000000000008152600401620006ba9062000c3f565b60405180910390fd5b60016002811115620006da57620006d962000f0a565b5b6001600083815260200190815260200160002060030160009054906101000a900460ff16600281111562000713576200071262000f0a565b5b1462000756576040517f08c379a00000000000000000000000000000000000000000000000000000000081526004016200074d9062000bfb565b60405180910390fd5b60026001600083815260200190815260200160002060030160006101000a81548160ff0219169083600281111562000793576200079262000f0a565b5b02179055507fa4035636e99f06b7651a604c1019fa4e8779fe68ef27eeb74dff2de348f6199b816001600084815260200190815260200160002060030160009054906101000a900460ff166002811115620007f357620007f262000f0a565b5b6001600085815260200190815260200160002060000160009054906101000a900473ffffffffffffffffffffffffffffffffffffffff166040516200083b9392919062000c61565b60405180910390a150565b61076a806200106983390190565b828054620008629062000e21565b90600052602060002090601f016020900481019282620008865760008555620008d2565b82601f10620008a157805160ff1916838001178555620008d2565b82800160010185558215620008d2579182015b82811115620008d1578251825591602001919060010190620008b4565b5b509050620008e19190620008e5565b5090565b5b8082111562000900576000816000905550600101620008e6565b5090565b60006200091b620009158462000cc7565b62000c9e565b9050828152602081018484840111156200093a576200093962000f9c565b5b6200094784828562000ddc565b509392505050565b600082601f83011262000967576200096662000f97565b5b81356200097984826020860162000904565b91505092915050565b60008135905062000993816200104e565b92915050565b60008060408385031215620009b357620009b262000fa6565b5b600083013567ffffffffffffffff811115620009d457620009d362000fa1565b5b620009e2858286016200094f565b9250506020620009f58582860162000982565b9150509250929050565b60006020828403121562000a185762000a1762000fa6565b5b600062000a288482850162000982565b91505092915050565b62000a3c8162000d19565b82525050565b62000a4d8162000d2d565b82525050565b62000a5e8162000d78565b82525050565b62000a6f8162000da0565b82525050565b62000a808162000dc8565b82525050565b600062000a938262000cfd565b62000a9f818562000d08565b935062000ab181856020860162000deb565b62000abc8162000fab565b840191505092915050565b600062000ad6601c8362000d08565b915062000ae38262000fbc565b602082019050919050565b600062000afd601b8362000d08565b915062000b0a8262000fe5565b602082019050919050565b600062000b2460158362000d08565b915062000b31826200100e565b602082019050919050565b62000b478162000d6e565b82525050565b600060208201905062000b64600083018462000a42565b92915050565b600060608201905062000b81600083018662000a53565b62000b90602083018562000b3c565b62000b9f604083018462000b3c565b949350505050565b600060808201905062000bbe600083018762000a64565b818103602083015262000bd2818662000a86565b905062000be3604083018562000b3c565b62000bf2606083018462000a75565b95945050505050565b6000602082019050818103600083015262000c168162000ac7565b9050919050565b6000602082019050818103600083015262000c388162000aee565b9050919050565b6000602082019050818103600083015262000c5a8162000b15565b9050919050565b600060608201905062000c78600083018662000b3c565b62000c87602083018562000b3c565b62000c96604083018462000a31565b949350505050565b600062000caa62000cbd565b905062000cb8828262000e57565b919050565b6000604051905090565b600067ffffffffffffffff82111562000ce55762000ce462000f68565b5b62000cf08262000fab565b9050602081019050919050565b600081519050919050565b600082825260208201905092915050565b600062000d268262000d4e565b9050919050565b60008115159050919050565b600081905062000d498262001037565b919050565b600073ffffffffffffffffffffffffffffffffffffffff82169050919050565b6000819050919050565b600062000d858262000d8c565b9050919050565b600062000d998262000d4e565b9050919050565b600062000dad8262000db4565b9050919050565b600062000dc18262000d4e565b9050919050565b600062000dd58262000d39565b9050919050565b82818337600083830152505050565b60005b8381101562000e0b57808201518184015260208101905062000dee565b8381111562000e1b576000848401525b50505050565b6000600282049050600182168062000e3a57607f821691505b6020821081141562000e515762000e5062000f39565b5b50919050565b62000e628262000fab565b810181811067ffffffffffffffff8211171562000e845762000e8362000f68565b5b80604052505050565b600062000e9a8262000d6e565b91507fffffffffffffffffffffffffffffffffffffffffffffffffffffffffffffffff82141562000ed05762000ecf62000edb565b5b600182019050919050565b7f4e487b7100000000000000000000000000000000000000000000000000000000600052601160045260246000fd5b7f4e487b7100000000000000000000000000000000000000000000000000000000600052602160045260246000fd5b7f4e487b7100000000000000000000000000000000000000000000000000000000600052602260045260246000fd5b7f4e487b7100000000000000000000000000000000000000000000000000000000600052604160045260246000fd5b600080fd5b600080fd5b600080fd5b600080fd5b6000601f19601f8301169050919050565b7f4974656d206973206675727468657220696e2074686520636861696e00000000600082015250565b7f4f6e6c792066756c6c207061796d656e74732061636365707465640000000000600082015250565b7f596f7520617265206e6f7420746865206f776e65720000000000000000000000600082015250565b600381106200104b576200104a62000f0a565b5b50565b620010598162000d6e565b81146200106557600080fd5b5056fe608060405234801561001057600080fd5b5060405161076a38038061076a833981810160405281019061003291906100b3565b816000819055508060028190555082600360006101000a81548173ffffffffffffffffffffffffffffffffffffffff021916908373ffffffffffffffffffffffffffffffffffffffff160217905550505050610187565b60008151905061009881610159565b92915050565b6000815190506100ad81610170565b92915050565b6000806000606084860312156100cc576100cb610154565b5b60006100da86828701610089565b93505060206100eb8682870161009e565b92505060406100fc8682870161009e565b9150509250925092565b60006101118261012a565b9050919050565b600061012382610106565b9050919050565b600073ffffffffffffffffffffffffffffffffffffffff82169050919050565b6000819050919050565b600080fd5b61016281610118565b811461016d57600080fd5b50565b6101798161014a565b811461018457600080fd5b50565b6105d4806101966000396000f3fe6080604052600436106100385760003560e01c80632986c0e5146102465780633c8da5881461027157806389794d001461029c57610241565b3661024157600060015414610082576040517f08c379a000000000000000000000000000000000000000000000000000000000815260040161007990610399565b60405180910390fd5b34600054146100c6576040517f08c379a00000000000000000000000000000000000000000000000000000000081526004016100bd906103d9565b60405180910390fd5b34600160008282546100d8919061043b565b925050819055506000600360009054906101000a900473ffffffffffffffffffffffffffffffffffffffff1673ffffffffffffffffffffffffffffffffffffffff163460025460405160240161012e91906103f9565b6040516020818303038152906040527f800fb83f000000000000000000000000000000000000000000000000000000007bffffffffffffffffffffffffffffffffffffffffffffffffffffffff19166020820180517bffffffffffffffffffffffffffffffffffffffffffffffffffffffff83818316178352505050506040516101b89190610382565b60006040518083038185875af1925050503d80600081146101f5576040519150601f19603f3d011682016040523d82523d6000602084013e6101fa565b606091505b505090508061023e576040517f08c379a0000000000000000000000000000000000000000000000000000000008152600401610235906103b9565b60405180910390fd5b50005b600080fd5b34801561025257600080fd5b5061025b6102c7565b60405161026891906103f9565b60405180910390f35b34801561027d57600080fd5b506102866102cd565b60405161029391906103f9565b60405180910390f35b3480156102a857600080fd5b506102b16102d3565b6040516102be91906103f9565b60405180910390f35b60025481565b60005481565b60015481565b60006102e482610414565b6102ee818561041f565b93506102fe81856020860161049b565b80840191505092915050565b600061031760148361042a565b9150610322826104fd565b602082019050919050565b600061033a602d8361042a565b915061034582610526565b604082019050919050565b600061035d601a8361042a565b915061036882610575565b602082019050919050565b61037c81610491565b82525050565b600061038e82846102d9565b915081905092915050565b600060208201905081810360008301526103b28161030a565b9050919050565b600060208201905081810360008301526103d28161032d565b9050919050565b600060208201905081810360008301526103f281610350565b9050919050565b600060208201905061040e6000830184610373565b92915050565b600081519050919050565b600081905092915050565b600082825260208201905092915050565b600061044682610491565b915061045183610491565b9250827fffffffffffffffffffffffffffffffffffffffffffffffffffffffffffffffff03821115610486576104856104ce565b5b828201905092915050565b6000819050919050565b60005b838110156104b957808201518184015260208101905061049e565b838111156104c8576000848401525b50505050565b7f4e487b7100000000000000000000000000000000000000000000000000000000600052601160045260246000fd5b7f4974656d206973207061696420616c7265616479000000000000000000000000600082015250565b7f546865207472616e73616374696f6e20776173206e6f7420737563636573736660008201527f756c2c2063616e63656c696e6700000000000000000000000000000000000000602082015250565b7f4f6e6c792066756c6c207061796d656e747320616c6c6f77656400000000000060008201525056fea26469706673582212201e755cbd06b17916648bfa2c46dc517704e4bad72d2b2e6463dbc457c426008064736f6c63430008060033a2646970667358221220859f9f4c6d9995eec6dd214bdf6a3d632461995d359b542ed0a53df172f7330464736f6c63430008060033",
  "immutableReferences": {},
  "source": "// SPDX-License-Identifier: MIT\r\npragma solidity ^0.8.6;\r\nimport \"./Item.sol\";\r\nimport \"./Ownable.sol\";\r\n\r\ncontract ItemManager is Ownable{\r\n    \r\n    enum SupplyChainState {Created, Paid, Delivered}\r\n    \r\n    struct S_Item {\r\n        Item _item;\r\n        string _identifier;\r\n        uint _itemPrice;\r\n        ItemManager.SupplyChainState _state;\r\n    }\r\n    \r\n    mapping(uint=> S_Item) public items;\r\n    uint itemIndex;\r\n    \r\n    event SupplyChainStep(uint _itemIndex, uint _step, address _itemAddress);\r\n    \r\n    function createItem(string memory _identifier, uint _itemPrice) public onlyOwner {\r\n        Item item = new Item(this, _itemPrice, itemIndex);\r\n        items[itemIndex]._item = item;\r\n        items[itemIndex]._identifier = _identifier;\r\n        items[itemIndex]._itemPrice = _itemPrice;\r\n        items[itemIndex]._state = SupplyChainState.Created;\r\n        emit SupplyChainStep(itemIndex, uint(items[itemIndex]._state), address(item));\r\n        itemIndex++;\r\n    }\r\n    \r\n    function triggerPayment(uint _itemIndex) payable public{\r\n        require(items[_itemIndex]._itemPrice == msg.value, \"Only full payments accepted\");\r\n        require(items[_itemIndex]._state == SupplyChainState.Created, \"Item is further in the chain\" );\r\n        \r\n        items[_itemIndex]._state = SupplyChainState.Paid;\r\n        emit SupplyChainStep(_itemIndex, uint(items[_itemIndex]._state), address(items[_itemIndex]._item));\r\n    }\r\n    \r\n    function triggerDelivery(uint _itemIndex) public onlyOwner {\r\n        require(items[_itemIndex]._state == SupplyChainState.Paid, \"Item is further in the chain\" );\r\n        \r\n        items[_itemIndex]._state = SupplyChainState.Delivered;\r\n        emit SupplyChainStep(_itemIndex, uint(items[_itemIndex]._state), address(items[_itemIndex]._item));\r\n    }\r\n}",
  "sourcePath": "C:\\NodeProjects\\SupplyChainProject\\contracts\\ItemManager.sol",
  "compiler": {
    "name": "solc",
    "version": "0.8.6+commit.11564f7e.Emscripten.clang"
  },
  "schemaVersion": "3.4.1",
  "updatedAt": "2021-06-26T12:17:34.182Z",
  "networkType": "ethereum",
  "devdoc": {
    "kind": "dev",
    "methods": {},
    "version": 1
  },
  "userdoc": {
    "kind": "user",
    "methods": {},
    "version": 1
  }
}