{
  "contractName": "Ownable",
  "abi": [
    {
      "inputs": [],
      "stateMutability": "nonpayable",
      "type": "constructor"
    },
    {
      "inputs": [],
      "name": "isOwner",
      "outputs": [
        {
          "internalType": "bool",
          "name": "",
          "type": "bool"
        }
      ],
      "stateMutability": "view",
      "type": "function"
    }
  ],
  "bytecode": "0x608060405234801561001057600080fd5b50336000806101000a81548173ffffffffffffffffffffffffffffffffffffffff021916908373ffffffffffffffffffffffffffffffffffffffff160217905550610106806100606000396000f3fe6080604052348015600f57600080fd5b506004361060285760003560e01c80638f32d59b14602d575b600080fd5b60336047565b604051603e919060ab565b60405180910390f35b60008060009054906101000a900473ffffffffffffffffffffffffffffffffffffffff1673ffffffffffffffffffffffffffffffffffffffff163373ffffffffffffffffffffffffffffffffffffffff1614905090565b60a58160c4565b82525050565b600060208201905060be6000830184609e565b92915050565b6000811515905091905056fea26469706673582212204c4d75bfe7e9e72c00810ca96f76c88a6ed219f1720ae664688581caec3e066664736f6c63430008060033",
  "immutableReferences": {},
  "source": "// SPDX-License-Identifier: MIT\r\npragma solidity ^0.8.6;\r\n\r\ncontract Ownable{\r\n    \r\n    address payable _owner;\r\n    constructor(){\r\n        _owner = payable(msg.sender);\r\n    }\r\n    \r\n    function isOwner() public view returns(bool){\r\n        return(msg.sender == _owner);\r\n    }\r\n    \r\n    modifier onlyOwner(){\r\n        require(isOwner(), \"You are not the owner\");\r\n        _;\r\n    }\r\n   \r\n}",
  "sourcePath": "C:\\NodeProjects\\SupplyChainProject\\contracts\\Ownable.sol",
  "compiler": {
    "name": "solc",
    "version": "0.8.6+commit.11564f7e.Emscripten.clang"
  },
  "schemaVersion": "3.4.1",
  "updatedAt": "2021-06-26T12:17:29.144Z",
  "devdoc": {
    "kind": "dev",
    "methods": {},
    "version": 1
  },
  "userdoc": {
    "kind": "user",
    "methods": {},
    "version": 1
  }
}